{
  "contractName": "Election",
  "abi": [
    {
      "constant": true,
      "inputs": [
        {
          "name": "",
          "type": "uint256"
        }
      ],
      "name": "candidates",
      "outputs": [
        {
          "name": "id",
          "type": "uint256"
        },
        {
          "name": "name",
          "type": "string"
        },
        {
          "name": "partyName",
          "type": "string"
        },
        {
          "name": "voteCount",
          "type": "uint256"
        },
        {
          "name": "parcetange",
          "type": "uint256"
        },
        {
          "name": "marginWL",
          "type": "uint256"
        },
        {
          "name": "winloss",
          "type": "string"
        }
      ],
      "payable": false,
      "stateMutability": "view",
      "type": "function"
    },
    {
      "constant": true,
      "inputs": [
        {
          "name": "",
          "type": "address"
        }
      ],
      "name": "VoterData",
      "outputs": [
        {
          "name": "voterID",
          "type": "uint256"
        },
        {
          "name": "voterAddress",
          "type": "address"
        },
        {
          "name": "voterFastName",
          "type": "string"
        },
        {
          "name": "voterLastName",
          "type": "string"
        },
        {
          "name": "voterGender",
          "type": "uint256"
        },
        {
          "name": "voterVoted",
          "type": "bool"
        }
      ],
      "payable": false,
      "stateMutability": "view",
      "type": "function"
    },
    {
      "inputs": [],
      "payable": false,
      "stateMutability": "nonpayable",
      "type": "constructor"
    },
    {
      "anonymous": false,
      "inputs": [
        {
          "indexed": false,
          "name": "_candidateId",
          "type": "uint256"
        },
        {
          "indexed": false,
          "name": "_candidateName",
          "type": "string"
        },
        {
          "indexed": false,
          "name": "_partyName",
          "type": "string"
        }
      ],
      "name": "addCandidateEvent",
      "type": "event"
    },
    {
      "anonymous": false,
      "inputs": [
        {
          "indexed": false,
          "name": "_voterId",
          "type": "uint256"
        },
        {
          "indexed": false,
          "name": "_voterAddress",
          "type": "address"
        },
        {
          "indexed": false,
          "name": "_voterFastName",
          "type": "string"
        },
        {
          "indexed": false,
          "name": "_voterLastName",
          "type": "string"
        },
        {
          "indexed": false,
          "name": "_voterGender",
          "type": "uint256"
        },
        {
          "indexed": false,
          "name": "_voterVoted",
          "type": "bool"
        }
      ],
      "name": "addVoterEvent",
      "type": "event"
    },
    {
      "anonymous": false,
      "inputs": [
        {
          "indexed": false,
          "name": "_errorLog",
          "type": "string"
        }
      ],
      "name": "errorLog",
      "type": "event"
    },
    {
      "anonymous": false,
      "inputs": [
        {
          "indexed": false,
          "name": "_voterStatus",
          "type": "string"
        }
      ],
      "name": "votingLog",
      "type": "event"
    },
    {
      "anonymous": false,
      "inputs": [
        {
          "indexed": false,
          "name": "_winName",
          "type": "string"
        }
      ],
      "name": "winerName",
      "type": "event"
    },
    {
      "anonymous": false,
      "inputs": [
        {
          "indexed": false,
          "name": "_id",
          "type": "uint256"
        },
        {
          "indexed": false,
          "name": "_name",
          "type": "string"
        },
        {
          "indexed": false,
          "name": "_partyName",
          "type": "string"
        },
        {
          "indexed": false,
          "name": "_voteCount",
          "type": "uint256"
        },
        {
          "indexed": false,
          "name": "_parcetange",
          "type": "uint256"
        },
        {
          "indexed": false,
          "name": "marginWL",
          "type": "uint256"
        },
        {
          "indexed": false,
          "name": "_winloss",
          "type": "string"
        }
      ],
      "name": "winnerData",
      "type": "event"
    },
    {
      "constant": false,
      "inputs": [
        {
          "name": "_name",
          "type": "string"
        },
        {
          "name": "_partyName",
          "type": "string"
        }
      ],
      "name": "addCandidate",
      "outputs": [],
      "payable": false,
      "stateMutability": "nonpayable",
      "type": "function"
    },
    {
      "constant": false,
      "inputs": [
        {
          "name": "_Address",
          "type": "address"
        },
        {
          "name": "_FName",
          "type": "string"
        },
        {
          "name": "_LName",
          "type": "string"
        },
        {
          "name": "_Gender",
          "type": "uint256"
        }
      ],
      "name": "addVoterData",
      "outputs": [],
      "payable": false,
      "stateMutability": "nonpayable",
      "type": "function"
    },
    {
      "constant": false,
      "inputs": [
        {
          "name": "_candidateId",
          "type": "uint256"
        },
        {
          "name": "_voterAddress",
          "type": "address"
        }
      ],
      "name": "vote",
      "outputs": [],
      "payable": false,
      "stateMutability": "nonpayable",
      "type": "function"
    },
    {
      "constant": false,
      "inputs": [],
      "name": "winer",
      "outputs": [],
      "payable": false,
      "stateMutability": "nonpayable",
      "type": "function"
    }
  ],
  "bytecode": "0x6080604052600060035560006004553480156200001b57600080fd5b50620000a16040805190810160405280600381526020017f424a5000000000000000000000000000000000000000000000000000000000008152506040805190810160405280600381526020017f424a500000000000000000000000000000000000000000000000000000000000815250620001b1640100000000026401000000009004565b620001266040805190810160405280600381526020017f41505000000000000000000000000000000000000000000000000000000000008152506040805190810160405280600381526020017f4150500000000000000000000000000000000000000000000000000000000000815250620001b1640100000000026401000000009004565b620001ab6040805190810160405280600381526020017f4e435000000000000000000000000000000000000000000000000000000000008152506040805190810160405280600381526020017f4e43500000000000000000000000000000000000000000000000000000000000815250620001b1640100000000026401000000009004565b62000499565b60026000815480929190600101919050555060e06040519081016040528060025481526020018381526020018281526020016000815260200160008152602001600081526020016040805190810160405280600181526020017f4e0000000000000000000000000000000000000000000000000000000000000081525081525060008060025481526020019081526020016000206000820151816000015560208201518160010190805190602001906200026d929190620003ea565b5060408201518160020190805190602001906200028c929190620003ea565b50606082015181600301556080820151816004015560a0820151816005015560c0820151816006019080519060200190620002c9929190620003ea565b509050507f03b82139356c093a035011ce3763c5dac393ceb3e2ccdb51303803932dd6f7486002548383604051808481526020018060200180602001838103835285818151815260200191508051906020019080838360005b838110156200033f57808201518184015260208101905062000322565b50505050905090810190601f1680156200036d5780820380516001836020036101000a031916815260200191505b50838103825284818151815260200191508051906020019080838360005b83811015620003a85780820151818401526020810190506200038b565b50505050905090810190601f168015620003d65780820380516001836020036101000a031916815260200191505b509550505050505060405180910390a15050565b828054600181600116156101000203166002900490600052602060002090601f016020900481019282601f106200042d57805160ff19168380011785556200045e565b828001600101855582156200045e579182015b828111156200045d57825182559160200191906001019062000440565b5b5090506200046d919062000471565b5090565b6200049691905b808211156200049257600081600090555060010162000478565b5090565b90565b61196f80620004a96000396000f300608060405260043610610078576000357c0100000000000000000000000000000000000000000000000000000000900463ffffffff16806302d947ef1461007d57806326541b56146100ca5780633477ee2e14610179578063cbe9c20d14610313578063d426b5d4146103ec578063e44e905614610403575b600080fd5b34801561008957600080fd5b506100c860048036038101908080359060200190929190803573ffffffffffffffffffffffffffffffffffffffff169060200190929190505050610577565b005b3480156100d657600080fd5b50610177600480360381019080803590602001908201803590602001908080601f0160208091040260200160405190810160405280939291908181526020018383808284378201915050505050509192919290803590602001908201803590602001908080601f0160208091040260200160405190810160405280939291908181526020018383808284378201915050505050509192919290505050610882565b005b34801561018557600080fd5b506101a460048036038101908080359060200190929190505050610aaf565b6040518088815260200180602001806020018781526020018681526020018581526020018060200184810384528a818151815260200191508051906020019080838360005b838110156102045780820151818401526020810190506101e9565b50505050905090810190601f1680156102315780820380516001836020036101000a031916815260200191505b50848103835289818151815260200191508051906020019080838360005b8381101561026a57808201518184015260208101905061024f565b50505050905090810190601f1680156102975780820380516001836020036101000a031916815260200191505b50848103825285818151815260200191508051906020019080838360005b838110156102d05780820151818401526020810190506102b5565b50505050905090810190601f1680156102fd5780820380516001836020036101000a031916815260200191505b509a505050505050505050505060405180910390f35b34801561031f57600080fd5b506103ea600480360381019080803573ffffffffffffffffffffffffffffffffffffffff169060200190929190803590602001908201803590602001908080601f0160208091040260200160405190810160405280939291908181526020018383808284378201915050505050509192919290803590602001908201803590602001908080601f016020809104026020016040519081016040528093929190818152602001838380828437820191505050505050919291929080359060200190929190505050610cb9565b005b3480156103f857600080fd5b50610401611070565b005b34801561040f57600080fd5b50610444600480360381019080803573ffffffffffffffffffffffffffffffffffffffff1690602001909291905050506111a2565b604051808781526020018673ffffffffffffffffffffffffffffffffffffffff1673ffffffffffffffffffffffffffffffffffffffff168152602001806020018060200185815260200184151515158152602001838103835287818151815260200191508051906020019080838360005b838110156104d05780820151818401526020810190506104b5565b50505050905090810190601f1680156104fd5780820380516001836020036101000a031916815260200191505b50838103825286818151815260200191508051906020019080838360005b8381101561053657808201518184015260208101905061051b565b50505050905090810190601f1680156105635780820380516001836020036101000a031916815260200191505b509850505050505050505060405180910390f35b808073ffffffffffffffffffffffffffffffffffffffff16600160008373ffffffffffffffffffffffffffffffffffffffff1673ffffffffffffffffffffffffffffffffffffffff16815260200190815260200160002060010160009054906101000a900473ffffffffffffffffffffffffffffffffffffffff1673ffffffffffffffffffffffffffffffffffffffff1614156107ee5781600160008273ffffffffffffffffffffffffffffffffffffffff1673ffffffffffffffffffffffffffffffffffffffff16815260200190815260200160002060050160009054906101000a900460ff16151561077f57600160036000828254019250508190555060008411801561068857506002548411155b151561069357600080fd5b60018060008573ffffffffffffffffffffffffffffffffffffffff1673ffffffffffffffffffffffffffffffffffffffff16815260200190815260200160002060050160006101000a81548160ff021916908315150217905550600080858152602001908152602001600020600301600081548092919060010191905055507f58759d6046798207ac630c65ba9cd028f88bcd0b3e5c428707da24676ad718ff6040518080602001828103825260048152602001807f446f6e650000000000000000000000000000000000000000000000000000000081525060200191505060405180910390a16107e8565b7f58759d6046798207ac630c65ba9cd028f88bcd0b3e5c428707da24676ad718ff60405180806020018281038252601c8152602001807f596f752068616420766f74656420666f7220746869732074696d65210000000081525060200191505060405180910390a15b5061087d565b7f58759d6046798207ac630c65ba9cd028f88bcd0b3e5c428707da24676ad718ff6040518080602001828103825260218152602001807f596f752068617665206e6f7420726567697374657220666f7220766f74696e6781526020017f210000000000000000000000000000000000000000000000000000000000000081525060400191505060405180910390a15b505050565b60026000815480929190600101919050555060e06040519081016040528060025481526020018381526020018281526020016000815260200160008152602001600081526020016040805190810160405280600181526020017f4e00000000000000000000000000000000000000000000000000000000000000815250815250600080600254815260200190815260200160002060008201518160000155602082015181600101908051906020019061093c92919061181e565b50604082015181600201908051906020019061095992919061181e565b50606082015181600301556080820151816004015560a0820151816005015560c082015181600601908051906020019061099492919061181e565b509050507f03b82139356c093a035011ce3763c5dac393ceb3e2ccdb51303803932dd6f7486002548383604051808481526020018060200180602001838103835285818151815260200191508051906020019080838360005b83811015610a085780820151818401526020810190506109ed565b50505050905090810190601f168015610a355780820380516001836020036101000a031916815260200191505b50838103825284818151815260200191508051906020019080838360005b83811015610a6e578082015181840152602081019050610a53565b50505050905090810190601f168015610a9b5780820380516001836020036101000a031916815260200191505b509550505050505060405180910390a15050565b6000602052806000526040600020600091509050806000015490806001018054600181600116156101000203166002900480601f016020809104026020016040519081016040528092919081815260200182805460018160011615610100020316600290048015610b615780601f10610b3657610100808354040283529160200191610b61565b820191906000526020600020905b815481529060010190602001808311610b4457829003601f168201915b505050505090806002018054600181600116156101000203166002900480601f016020809104026020016040519081016040528092919081815260200182805460018160011615610100020316600290048015610bff5780601f10610bd457610100808354040283529160200191610bff565b820191906000526020600020905b815481529060010190602001808311610be257829003601f168201915b505050505090806003015490806004015490806005015490806006018054600181600116156101000203166002900480601f016020809104026020016040519081016040528092919081815260200182805460018160011615610100020316600290048015610caf5780601f10610c8457610100808354040283529160200191610caf565b820191906000526020600020905b815481529060010190602001808311610c9257829003601f168201915b5050505050905087565b8373ffffffffffffffffffffffffffffffffffffffff16600160008673ffffffffffffffffffffffffffffffffffffffff1673ffffffffffffffffffffffffffffffffffffffff16815260200190815260200160002060010160009054906101000a900473ffffffffffffffffffffffffffffffffffffffff1673ffffffffffffffffffffffffffffffffffffffff161415610dbc577fdf8dca245d7ff96a83e9b8205a2ad0be04df6e3bbda74669314fdc76657f0e8260405180806020018281038252600d8152602001807f526567697374657220757365720000000000000000000000000000000000000081525060200191505060405180910390a161106a565b600160046000828254019250508190555060c06040519081016040528060045481526020018573ffffffffffffffffffffffffffffffffffffffff16815260200184815260200183815260200182815260200160001515815250600160008673ffffffffffffffffffffffffffffffffffffffff1673ffffffffffffffffffffffffffffffffffffffff1681526020019081526020016000206000820151816000015560208201518160010160006101000a81548173ffffffffffffffffffffffffffffffffffffffff021916908373ffffffffffffffffffffffffffffffffffffffff1602179055506040820151816002019080519060200190610ec292919061181e565b506060820151816003019080519060200190610edf92919061181e565b506080820151816004015560a08201518160050160006101000a81548160ff0219169083151502179055509050507f3e7e283339283258129de95d4f36070a8e3ebe9888b0f6bfd6c2d4d7145c5bd5600454858585856000604051808781526020018673ffffffffffffffffffffffffffffffffffffffff1673ffffffffffffffffffffffffffffffffffffffff168152602001806020018060200185815260200184151515158152602001838103835287818151815260200191508051906020019080838360005b83811015610fc3578082015181840152602081019050610fa8565b50505050905090810190601f168015610ff05780820380516001836020036101000a031916815260200191505b50838103825286818151815260200191508051906020019080838360005b8381101561102957808201518184015260208101905061100e565b50505050905090810190601f1680156110565780820380516001836020036101000a031916815260200191505b509850505050505050505060405180910390a15b50505050565b6000806000806000925060009150600090505b6002548111151561112b57600354606460008084815260200190815260200160002060030154028115156110b357fe5b04600080838152602001908152602001600020600401819055508260008083815260200190815260200160002060030154111561111e576000808281526020019081526020016000206003015492506000808281526020019081526020016000206004015491508093505b8080600101915050611083565b6111348261133b565b7fc3f85d3b0eb02cbfe0e9081bdd2715ca86ca963472d5b4a7b618139ff3da9eec6040518080602001828103825260058152602001807f77696e657200000000000000000000000000000000000000000000000000000081525060200191505060405180910390a150505050565b60016020528060005260406000206000915090508060000154908060010160009054906101000a900473ffffffffffffffffffffffffffffffffffffffff1690806002018054600181600116156101000203166002900480601f01602080910402602001604051908101604052809291908181526020018280546001816001161561010002031660029004801561127a5780601f1061124f5761010080835404028352916020019161127a565b820191906000526020600020905b81548152906001019060200180831161125d57829003601f168201915b505050505090806003018054600181600116156101000203166002900480601f0160208091040260200160405190810160405280929190818152602001828054600181600116156101000203166002900480156113185780601f106112ed57610100808354040283529160200191611318565b820191906000526020600020905b8154815290600101906020018083116112fb57829003601f168201915b5050505050908060040154908060050160009054906101000a900460ff16905086565b600080611347836117cb565b9150600090505b600254811115156117c657600080828152602001908152602001600020600401548314151561140c57600080828152602001908152602001600020600401548303600080838152602001908152602001600020600501819055506040805190810160405280600481526020017f4c6f737300000000000000000000000000000000000000000000000000000000815250600080838152602001908152602001600020600601908051906020019061140692919061189e565b5061153c565b60018214156114aa57600080828152602001908152602001600020600401548303600080838152602001908152602001600020600501819055506040805190810160405280600381526020017f576f6e000000000000000000000000000000000000000000000000000000000081525060008083815260200190815260200160002060060190805190602001906114a492919061189e565b5061153b565b600080828152602001908152602001600020600401548303600080838152602001908152602001600020600501819055506040805190810160405280600381526020017f5469650000000000000000000000000000000000000000000000000000000000815250600080838152602001908152602001600020600601908051906020019061153992919061189e565b505b5b7fb4ba9c43e3dac0a66a0c77b7f0433a59345922100deb15b73ccc2db00052286a600080838152602001908152602001600020600001546000808481526020019081526020016000206001016000808581526020019081526020016000206002016000808681526020019081526020016000206003015460008087815260200190815260200160002060040154600080888152602001908152602001600020600501546000808981526020019081526020016000206006016040518088815260200180602001806020018781526020018681526020018581526020018060200184810384528a81815460018160011615610100020316600290048152602001915080546001816001161561010002031660029004801561169d5780601f106116725761010080835404028352916020019161169d565b820191906000526020600020905b81548152906001019060200180831161168057829003601f168201915b50508481038352898181546001816001161561010002031660029004815260200191508054600181600116156101000203166002900480156117205780601f106116f557610100808354040283529160200191611720565b820191906000526020600020905b81548152906001019060200180831161170357829003601f168201915b50508481038252858181546001816001161561010002031660029004815260200191508054600181600116156101000203166002900480156117a35780601f10611778576101008083540402835291602001916117a3565b820191906000526020600020905b81548152906001019060200180831161178657829003601f168201915b50509a505050505050505050505060405180910390a1808060010191505061134e565b505050565b6000806000809150600090505b600254811115156118145760008082815260200190815260200160002060040154841415611807576001820191505b80806001019150506117d8565b8192505050919050565b828054600181600116156101000203166002900490600052602060002090601f016020900481019282601f1061185f57805160ff191683800117855561188d565b8280016001018555821561188d579182015b8281111561188c578251825591602001919060010190611871565b5b50905061189a919061191e565b5090565b828054600181600116156101000203166002900490600052602060002090601f016020900481019282601f106118df57805160ff191683800117855561190d565b8280016001018555821561190d579182015b8281111561190c5782518255916020019190600101906118f1565b5b50905061191a919061191e565b5090565b61194091905b8082111561193c576000816000905550600101611924565b5090565b905600a165627a7a723058208c0843231bdb0b2d91bf25f9bf4d2fdd19cd975f704f6d599d8092ad3460db260029",
  "source": "pragma solidity ^0.4.17;\r\n\r\ncontract Election {\r\n\r\n    struct Candidate {\r\n        uint id;\r\n        string name;\r\n        string partyName;\r\n        uint voteCount;\r\n        uint parcetange;\r\n        uint marginWL;\r\n        string winloss;\r\n    }\r\n\r\n    struct Voter {\r\n        uint voterID;\r\n        address voterAddress;\r\n        string voterFastName;\r\n        string voterLastName;\r\n        uint voterGender;\r\n        bool voterVoted;\r\n    }\r\n\r\n    mapping(uint => Candidate)public candidates;\r\n\r\n    mapping(address => Voter) public VoterData;\r\n\r\n    uint candidatesCount;\r\n    uint totalVoteCount=0;\r\n    uint voterCounts=0;\r\n\r\n    event addCandidateEvent(uint _candidateId, string _candidateName, string _partyName);\r\n    event addVoterEvent(uint _voterId, address _voterAddress, string _voterFastName,string _voterLastName, uint _voterGender,bool _voterVoted);\r\n    event errorLog(string _errorLog);\r\n    event votingLog(string _voterStatus);\r\n    event winerName(string _winName);\r\n    event winnerData(uint _id,string _name,string _partyName,uint _voteCount,uint _parcetange,uint marginWL,string _winloss);\r\n\r\n    modifier checkVoterAddress(address _voterAddress){\r\n        if(VoterData[_voterAddress].voterAddress == _voterAddress){\r\n            _;\r\n        } else {\r\n            emit votingLog(\"You have not register for voting!\");\r\n        }\r\n    }\r\n\r\n    modifier voterVoteStatus(address _voterAddress){\r\n        if(!VoterData[_voterAddress].voterVoted){\r\n            _;\r\n        } else {\r\n            emit votingLog(\"You had voted for this time!\");\r\n        }\r\n    }\r\n\t\r\n    function Election() public {\r\n         addCandidate(\"BJP\",\"BJP\");\r\n         addCandidate(\"APP\",\"APP\");\r\n         addCandidate(\"NCP\",\"NCP\");\r\n    }\r\n\r\n    function addCandidate(string _name,string _partyName) public{\r\n        candidatesCount++;\r\n        candidates[candidatesCount] = Candidate(candidatesCount,_name,_partyName,0,0,0,\"N\");\r\n\r\n        emit addCandidateEvent(candidatesCount,_name,_partyName);\r\n    }\r\n\r\n    function addVoterData(address _Address,string _FName,string _LName, uint _Gender) public {\r\n        if(VoterData[_Address].voterAddress == _Address)\r\n        {\r\n           emit errorLog(\"Register user\");\r\n        } else {\r\n            voterCounts += 1;\r\n            VoterData[_Address] = Voter(voterCounts, _Address, _FName, _LName, _Gender, false);\r\n\r\n            emit addVoterEvent(voterCounts, _Address, _FName, _LName, _Gender,false);\r\n        }\r\n    }\r\n\r\n    function vote(uint _candidateId,address _voterAddress) public checkVoterAddress(_voterAddress) voterVoteStatus(_voterAddress) {\r\n        totalVoteCount +=1;\r\n        require(_candidateId > 0 && _candidateId <= candidatesCount);\r\n\r\n        VoterData[_voterAddress].voterVoted = true;\r\n        candidates[_candidateId].voteCount++;\r\n        emit votingLog(\"Done\");\r\n    }\r\n\r\n    function winer() public {\r\n      uint winerId;\r\n      uint totalcount=0;\r\n      uint highparcentag=0;\r\n      for(uint i=0; i <= candidatesCount; i++){\r\n          candidates[i].parcetange = (candidates[i].voteCount * 100) / totalVoteCount;\r\n          if(candidates[i].voteCount > totalcount){\r\n                totalcount = candidates[i].voteCount;\r\n                highparcentag = candidates[i].parcetange;\r\n                winerId = i;\r\n          }\r\n      }\r\n      setData(highparcentag);\r\n      //return true;\r\n      emit winerName(\"winer\");\r\n    }\r\n\r\n    function setData(uint highparcent) private {\r\n      uint winerData = Tiecheck(highparcent);\r\n      for(uint i=0; i <= candidatesCount; i++){\r\n      if(highparcent != candidates[i].parcetange ) {\r\n        candidates[i].marginWL = (highparcent - candidates[i].parcetange);\r\n        candidates[i].winloss =\"Loss\";\r\n      } else {\r\n             if(winerData == 1){\r\n                 candidates[i].marginWL = (highparcent - candidates[i].parcetange);\r\n                 candidates[i].winloss = \"Won\";\r\n             }\r\n             else {\r\n               candidates[i].marginWL = (highparcent - candidates[i].parcetange);\r\n               candidates[i].winloss = \"Tie\";\r\n                }\r\n        }\r\n\t\temit winnerData(candidates[i].id,candidates[i].name,candidates[i].partyName,candidates[i].voteCount,candidates[i].parcetange,candidates[i].marginWL,candidates[i].winloss);\r\n            \t\t\r\n      }\r\n    }\r\n\r\n    function Tiecheck(uint highparcent) private view returns(uint){\r\n        uint chektie=0;\r\n        for(uint x=0; x <= candidatesCount; x++){\r\n            if(highparcent == candidates[x].parcetange)\r\n            {\r\n                chektie +=1;\r\n            }\r\n        }\r\n        return chektie;\r\n    }\r\n\r\n    function getCondidateById(uint _id) private view returns(string,string,uint,uint,uint,string){\r\n        return (candidates[_id].name,candidates[_id].partyName,candidates[_id].voteCount,candidates[_id].parcetange,candidates[_id].marginWL,candidates[_id].winloss);\r\n    }\r\n\r\n}\r\n",
  "sourcePath": "C:\\Users\\Manoj\\Desktop\\final voting dapp\\VotingSystem\\contracts\\Election.sol",
  "compiler": {
    "name": "solc",
    "version": "0.4.23+commit.124ca40d.Emscripten.clang"
  },
  "schemaVersion": "2.0.0",
  "updatedAt": "2018-05-03T13:33:43.409Z"
}